{
  "_format": "hh-sol-artifact-1",
  "contractName": "WavePortal",
  "sourceName": "contracts/WavePortal.sol",
  "abi": [
    {
      "inputs": [],
      "stateMutability": "nonpayable",
      "type": "constructor"
    },
    {
      "inputs": [],
      "name": "getTotalWaves",
      "outputs": [
        {
          "internalType": "uint256",
          "name": "",
          "type": "uint256"
        }
      ],
      "stateMutability": "view",
      "type": "function"
    },
    {
      "inputs": [],
      "name": "wave",
      "outputs": [],
      "stateMutability": "nonpayable",
      "type": "function"
    }
  ],
  "bytecode": "0x608060405234801561001057600080fd5b5061003c6040518060600160405280602581526020016107a56025913961004160201b6101541760201c565b6101c4565b6100dd816040516024016100559190610142565b6040516020818303038152906040527f41304fac000000000000000000000000000000000000000000000000000000007bffffffffffffffffffffffffffffffffffffffffffffffffffffffff19166020820180517bffffffffffffffffffffffffffffffffffffffffffffffffffffffff83818316178352505050506100e060201b60201c565b50565b60008151905060006a636f6e736f6c652e6c6f679050602083016000808483855afa5050505050565b600061011482610164565b61011e818561016f565b935061012e818560208601610180565b610137816101b3565b840191505092915050565b6000602082019050818103600083015261015c8184610109565b905092915050565b600081519050919050565b600082825260208201905092915050565b60005b8381101561019e578082015181840152602081019050610183565b838111156101ad576000848401525b50505050565b6000601f19601f8301169050919050565b6105d2806101d36000396000f3fe608060405234801561001057600080fd5b50600436106100365760003560e01c80636fe15b441461003b5780639a2cdc0814610045575b600080fd5b610043610063565b005b61004d610120565b60405161005a9190610438565b60405180910390f35b6001600080828254610075919061046f565b925050819055506100bb6040518060400160405280600d81526020017f2573206861732077617665642100000000000000000000000000000000000000815250336101ed565b6001339080600181540180825580915050600190039060005260206000200160009091909190916101000a81548173ffffffffffffffffffffffffffffffffffffffff021916908373ffffffffffffffffffffffffffffffffffffffff160217905550565b600061014c60405180606001604052806028815260200161057560289139600054600180549050610289565b600054905090565b6101ea8160405160240161016891906103a8565b6040516020818303038152906040527f41304fac000000000000000000000000000000000000000000000000000000007bffffffffffffffffffffffffffffffffffffffffffffffffffffffff19166020820180517bffffffffffffffffffffffffffffffffffffffffffffffffffffffff8381831617835250505050610328565b50565b61028582826040516024016102039291906103ca565b6040516020818303038152906040527f319af333000000000000000000000000000000000000000000000000000000007bffffffffffffffffffffffffffffffffffffffffffffffffffffffff19166020820180517bffffffffffffffffffffffffffffffffffffffffffffffffffffffff8381831617835250505050610328565b5050565b6103238383836040516024016102a1939291906103fa565b6040516020818303038152906040527f969cdd03000000000000000000000000000000000000000000000000000000007bffffffffffffffffffffffffffffffffffffffffffffffffffffffff19166020820180517bffffffffffffffffffffffffffffffffffffffffffffffffffffffff8381831617835250505050610328565b505050565b60008151905060006a636f6e736f6c652e6c6f679050602083016000808483855afa5050505050565b61035a816104c5565b82525050565b600061036b82610453565b610375818561045e565b9350610385818560208601610501565b61038e81610563565b840191505092915050565b6103a2816104f7565b82525050565b600060208201905081810360008301526103c28184610360565b905092915050565b600060408201905081810360008301526103e48185610360565b90506103f36020830184610351565b9392505050565b600060608201905081810360008301526104148186610360565b90506104236020830185610399565b6104306040830184610399565b949350505050565b600060208201905061044d6000830184610399565b92915050565b600081519050919050565b600082825260208201905092915050565b600061047a826104f7565b9150610485836104f7565b9250827fffffffffffffffffffffffffffffffffffffffffffffffffffffffffffffffff038211156104ba576104b9610534565b5b828201905092915050565b60006104d0826104d7565b9050919050565b600073ffffffffffffffffffffffffffffffffffffffff82169050919050565b6000819050919050565b60005b8381101561051f578082015181840152602081019050610504565b8381111561052e576000848401525b50505050565b7f4e487b7100000000000000000000000000000000000000000000000000000000600052601160045260246000fd5b6000601f19601f830116905091905056fe5765206861766520256420746f74616c2077617665732c2066726f6d202564207761766572732021a264697066735822122053ac477540f0fc598d6506e6b0acb3c67da77969db0570f8caad95da426ad54a64736f6c63430008040033596f20796f2c204920616d206120636f6e747261637420616e64204920616d20736d617274",
  "linkReferences": {},
  "deployedLinkReferences": {}
}